{
  "address": "0x957ce2D8e9E0F584000FbEA2b655e939BE5dfD52",
  "abi": [
    {
      "inputs": [
        {
          "internalType": "address",
          "name": "pythContract",
          "type": "address"
        }
      ],
      "stateMutability": "nonpayable",
      "type": "constructor"
    },
    {
      "inputs": [
        {
          "internalType": "address",
          "name": "",
          "type": "address"
        }
      ],
      "name": "balanceByUser",
      "outputs": [
        {
          "internalType": "uint256",
          "name": "usdc",
          "type": "uint256"
        },
        {
          "internalType": "uint256",
          "name": "weth",
          "type": "uint256"
        }
      ],
      "stateMutability": "view",
      "type": "function"
    },
    {
      "inputs": [
        {
          "internalType": "address",
          "name": "user",
          "type": "address"
        },
        {
          "internalType": "uint256",
          "name": "amount",
          "type": "uint256"
        }
      ],
      "name": "deposit",
      "outputs": [],
      "stateMutability": "nonpayable",
      "type": "function"
    },
    {
      "inputs": [
        {
          "internalType": "address",
          "name": "",
          "type": "address"
        }
      ],
      "name": "operatorByUser",
      "outputs": [
        {
          "internalType": "address",
          "name": "",
          "type": "address"
        }
      ],
      "stateMutability": "view",
      "type": "function"
    },
    {
      "inputs": [
        {
          "internalType": "address",
          "name": "operator",
          "type": "address"
        }
      ],
      "name": "setOperator",
      "outputs": [],
      "stateMutability": "nonpayable",
      "type": "function"
    },
    {
      "inputs": [
        {
          "internalType": "address",
          "name": "user",
          "type": "address"
        },
        {
          "internalType": "bool",
          "name": "buy",
          "type": "bool"
        }
      ],
      "name": "swap",
      "outputs": [],
      "stateMutability": "nonpayable",
      "type": "function"
    }
  ],
  "transactionHash": "0x54a6f5feafb16212356f9f4f435b2129123c5b871afa4f51273d949f7a525212",
  "args": [
    "0xA2aa501b19aff244D90cc15a4Cf739D2725B5729"
  ],
  "numDeployments": 1,
  "solcInputHash": "0cdcc106496cdd9ed655dc9d51e39dbd",
  "bytecode": "0x608060405234801561001057600080fd5b506040516106b73803806106b783398101604081905261002f91610054565b600280546001600160a01b0319166001600160a01b0392909216919091179055610084565b60006020828403121561006657600080fd5b81516001600160a01b038116811461007d57600080fd5b9392505050565b610624806100936000396000f3fe608060405234801561001057600080fd5b50600436106100575760003560e01c806338a6fe511461005c57806347e7ef24146100a2578063a278d036146100b7578063b3ab15fb146100ca578063cff9f11214610107575b600080fd5b61008561006a366004610444565b6001602052600090815260409020546001600160a01b031681565b6040516001600160a01b0390911681526020015b60405180910390f35b6100b56100b0366004610466565b610143565b005b6100b56100c5366004610490565b610204565b6100b56100d8366004610444565b33600090815260016020526040902080546001600160a01b0319166001600160a01b0392909216919091179055565b61012e610115366004610444565b6000602081905290815260409020805460019091015482565b60408051928352602083019190915201610099565b336001600160a01b038316148061017357506001600160a01b038281166000908152600160205260409020541633145b6101c05760405162461bcd60e51b8152602060048201526019602482015278135bd8dad4ddd85c0b9cddd85c081b9bdd08185b1b1bddd959603a1b60448201526064015b60405180910390fd5b6001600160a01b0382166000908152602081905260409020546101e49082906104e2565b6001600160a01b0390921660009081526020819052604090209190915550565b336001600160a01b038316148061023457506001600160a01b038281166000908152600160205260409020541633145b61027c5760405162461bcd60e51b8152602060048201526019602482015278135bd8dad4ddd85c0b9cddd85c081b9bdd08185b1b1bddd959603a1b60448201526064016101b7565b6002546040516396834ad360e01b81527fca80ba6dc32e08d06f1aa886011eed1d77c77be9eb761cc10d72b7d0a2fd57a660048201819052916000916001600160a01b03909116906396834ad390602401608060405180830381865afa1580156102ea573d6000803e3d6000fd5b505050506040513d601f19601f8201168201806040525081019061030e9190610525565b6001600160a01b0385166000908152602081905260409020909150600184151514801561033d57506001810154155b8061035057508315801561035057508054155b61039c5760405162461bcd60e51b815260206004820181905260248201527f4d6f636b537761702e737761702077726f6e6720636f6e66696720747261646560448201526064016101b7565b83156103dc578151815467ffffffffffffffff909116906103c490655af3107a4000906105b5565b6103ce91906105cc565b600182015560008155610421565b805482516001830154655af3107a4000916104039167ffffffffffffffff909116906105b5565b61040d91906105cc565b61041791906104e2565b8155600060018201555b5050505050565b80356001600160a01b038116811461043f57600080fd5b919050565b60006020828403121561045657600080fd5b61045f82610428565b9392505050565b6000806040838503121561047957600080fd5b61048283610428565b946020939093013593505050565b600080604083850312156104a357600080fd5b6104ac83610428565b9150602083013580151581146104c157600080fd5b809150509250929050565b634e487b7160e01b600052601160045260246000fd5b808201808211156104f5576104f56104cc565b92915050565b805167ffffffffffffffff8116811461043f57600080fd5b8051600381900b811461043f57600080fd5b60006080828403121561053757600080fd5b6040516080810181811067ffffffffffffffff8211171561056857634e487b7160e01b600052604160045260246000fd5b6040528251600781900b811461057d57600080fd5b815261058b602084016104fb565b602082015261059c60408401610513565b6040820152606083015160608201528091505092915050565b80820281158282048414176104f5576104f56104cc565b6000826105e957634e487b7160e01b600052601260045260246000fd5b50049056fea2646970667358221220841a126945a7e9884036151ca3fd00f7d37559213add8938d6972531e9b38e7364736f6c63430008120033",
  "devdoc": {
    "kind": "dev",
    "methods": {},
    "version": 1
  },
  "userdoc": {
    "kind": "user",
    "methods": {},
    "version": 1
  },
  "storageLayout": {
    "storage": [
      {
        "astId": 181,
        "contract": "contracts/MockSwap.sol:MockSwap",
        "label": "balanceByUser",
        "offset": 0,
        "slot": "0",
        "type": "t_mapping(t_address,t_struct(Pair)173_storage)"
      },
      {
        "astId": 185,
        "contract": "contracts/MockSwap.sol:MockSwap",
        "label": "operatorByUser",
        "offset": 0,
        "slot": "1",
        "type": "t_mapping(t_address,t_address)"
      },
      {
        "astId": 188,
        "contract": "contracts/MockSwap.sol:MockSwap",
        "label": "_pyth",
        "offset": 0,
        "slot": "2",
        "type": "t_contract(IPyth)118"
      }
    ],
    "types": {
      "t_address": {
        "encoding": "inplace",
        "label": "address",
        "numberOfBytes": "20"
      },
      "t_contract(IPyth)118": {
        "encoding": "inplace",
        "label": "contract IPyth",
        "numberOfBytes": "20"
      },
      "t_mapping(t_address,t_address)": {
        "encoding": "mapping",
        "key": "t_address",
        "label": "mapping(address => address)",
        "numberOfBytes": "32",
        "value": "t_address"
      },
      "t_mapping(t_address,t_struct(Pair)173_storage)": {
        "encoding": "mapping",
        "key": "t_address",
        "label": "mapping(address => struct Pair)",
        "numberOfBytes": "32",
        "value": "t_struct(Pair)173_storage"
      },
      "t_struct(Pair)173_storage": {
        "encoding": "inplace",
        "label": "struct Pair",
        "members": [
          {
            "astId": 170,
            "contract": "contracts/MockSwap.sol:MockSwap",
            "label": "usdc",
            "offset": 0,
            "slot": "0",
            "type": "t_uint256"
          },
          {
            "astId": 172,
            "contract": "contracts/MockSwap.sol:MockSwap",
            "label": "weth",
            "offset": 0,
            "slot": "1",
            "type": "t_uint256"
          }
        ],
        "numberOfBytes": "64"
      },
      "t_uint256": {
        "encoding": "inplace",
        "label": "uint256",
        "numberOfBytes": "32"
      }
    }
  }
}